:020000040800F2
:100000000080002079620008B1190008B5190008C5
:10001000C5190008C7190008C91900080000000028
:10002000000000000000000000000000CB190008E4
:10003000CD19000800000000CF190008794C000815
:10004000C9620008C9620008C9620008C9620008E4
:10005000C9620008C9620008C9620008C9620008D4
:10006000C9620008C9620008C9620008C9620008C4
:10007000C9620008C9620008C9620008C9620008B4
:10008000C9620008C9620008C962000800000000D7
:10009000000000000000000000000000C96200082D
:1000A000C9620008C9620008C9620008C962000884
:1000B000C96200080000000000000000D11900081B
:1000C000151A0008C9620008C9620008C962000860
:1000D000C9620008C94E0008D54E0008C962000870
:1000E000C96200087D360008000000000000000022
:1000F0000000000000000000000000000000000000
:1001000000000000000000000000000000000000EF
:100110000000000000000000C962000800000000AC
:10012000C9620008C9620008C9620008C962000803
:10013000C96200080000000000000000000000008C
:10014000C9620008C9620008C9620008C9620008E3
:10015000C9620008C9620008BD4E0008C9620008F3
:10016000C9620008C9620008000000000000000029
:1001700000000000C962000800000000000000004C
:10018000C9620008C9620008C962000800000000D6
:1001C00010B5054C237833B9044B13B10448AFF391
:1001D00000800123237010BDC8090020000000002A
:1001E0002C55010808B5034B1BB103490348AFF375
:1001F000008008BD00000000CC0900202C5501083B
:10020000844641EA000313F003036DD1403A41D321
:1002100051F8043B40F8043B51F8043B40F8043BE0
:1002200051F8043B40F8043B51F8043B40F8043BD0
:1002300051F8043B40F8043B51F8043B40F8043BC0
:1002400051F8043B40F8043B51F8043B40F8043BB0
:1002500051F8043B40F8043B51F8043B40F8043BA0
:1002600051F8043B40F8043B51F8043B40F8043B90
:1002700051F8043B40F8043B51F8043B40F8043B80
:1002800051F8043B40F8043B51F8043B40F8043B70
:10029000403ABDD2303211D351F8043B40F8043B10
:1002A00051F8043B40F8043B51F8043B40F8043B50
:1002B00051F8043B40F8043B103AEDD20C3205D320
:1002C00051F8043B40F8043B043AF9D2043208D018
:1002D000D2071CBF11F8013B00F8013B01D30B888A
:1002E00003806046704700BF082A13D38B078DD068
:1002F00010F003038AD0C3F10403D21ADB071CBF3A
:1003000011F8013B00F8013B80D331F8023B20F8A3
:10031000023B7BE7043AD9D3013A11F8013B00F8DC
:10032000013BF9D20B7803704B7843708B78837064
:100330006046704700000000000000000000000060
:10034000A2EB0300704700BF02780B78012A28BF98
:100350009A42F5D16DE9044540EA0104CDE902670E
:100360006FF0000C4FEA447212B380EA010414F0FB
:10037000070F6AD100F0070420F0070004F003051E
:1003800021F007014FEAC505F0E8042314F0040F3B
:10039000F1E804670CFA05F462EA040266EA04066E
:1003A0000AD063EA0403624667EA0407664603E08C
:1003B000F0E80423F1E8046782FA4CF582EA0604C7
:1003C000A4FA8CF46CBB83FA4CF583EA0705A5FA12
:1003D0008CF595B950E9022351E9026782FA4CF590
:1003E00082EA0604A4FA8CF483FA4CF583EA070542
:1003F000A5FA8CF52543DBD09CB92DBAB5FA85F466
:1004000024F0070427FA04F1DDE9026723FA04F374
:1004100003F0FF0001F0FF01FDE80445A0EB01003F
:10042000704724BAB4FA84F424F0070426FA04F1DD
:10043000DDE9026722FA04F202F0FF0001F0FF0199
:10044000FDE80445A0EB0100704714F0030F3CD118
:1004500010F0030428D150F8082B51F8083B82FA19
:100460004CF582EA0305A5FA8CF55DB950F8042C29
:1004700051F8043C82FA4CF582EA0305A5FA8CF5A2
:10048000002DE8D02DBAB5FA85F424F0070423FA3C
:1004900004F122FA04F202F0FF0001F0FF01FDE88E
:1004A0000445A0EB010070474FEAC40420F00300AC
:1004B00050F8082B21F0030151F8083B0CFA04F422
:1004C00062EA040263EA0403C9E710F003041AD0E5
:1004D000A1EB040120F00300E40750F8042B06D040
:1004E0000FD28B785FFAA2F4E41A06D12BB1CB7845
:1004F0005FFAB2F4E41A00D11BB920465DF8104B44
:10050000704701F1040150F8042BCC0721F00301DE
:1005100051F8043B48D824D222F07F4482FA4CF5AB
:1005200094EA1325A5FA8CF50AD165B951F8043B74
:1005300084EA0204B4EB036F0ED150F8042BEBE70E
:100540004FEA132355E035F07F454DD10878FDE89B
:100550000445C0F1000070474FEA126203F0FF0348
:1005600047E002EA1C4482FA4CF594EA1345A5FAE6
:100570008CF50AD165B951F8043B84EA0204B4EB66
:10058000034F0CD150F8042BEBE74FEA134330E054
:1005900015EA1C4528D10B884FEA124229E04FEAA0
:1005A000124203EA1C4324E002F0FF0482FA4CF5F5
:1005B00094EA1365A5FA8CF50AD165B951F8043BA4
:1005C00084EA0204B4EB032F09D150F8042BEBE7C3
:1005D0004FEA13630DE015F0FF0F05D10B684FEAEA
:1005E000122223F07F4304E04FF00000FDE80445B1
:1005F000704712BA1BBA82FA4CF482EA0304A4FAD6
:100600008CF5B5FA85F402FA04F203FA04F34FEA22
:100610001260FDE80445A0EB136070470000000085
:1006200000000000000000000000000000000000CA
:1006300000000000000000000000000000000000BA
:1006400090F800F06DE9024520F007016FF0000C12
:1006500010F0070491F820F040F049804FF00004BA
:100660006FF00700D1E9002391F840F000F1080095
:1006700082FA4CF2A4FA8CF283FA4CF3A2FA8CF3CD
:100680004BBBD1E9022382FA4CF200F10800A4FA34
:100690008CF283FA4CF3A2FA8CF3E3B9D1E9042388
:1006A00082FA4CF200F10800A4FA8CF283FA4CF3BF
:1006B000A2FA8CF37BB9D1E9062301F1200182FA79
:1006C0004CF200F10800A4FA8CF283FA4CF3A2FA7F
:1006D0008CF3002BC6D0002A04BF04301A4612BA8D
:1006E000B2FA82F2FDE8024500EBD2007047D1E990
:1006F000002304F00305C4F100004FEAC50514F01F
:10070000040F91F840F00CFA05F562EA05021CBFEF
:1007100063EA050362464FF00004A9E70000000009
:1007200001F0FF01102A2BDB10F0070F08D010F8A2
:10073000013B013A8B422DD010F0070F42B3F6D1A6
:10074000F0B441EA012141EA014122F007047FF0BF
:1007500000070023F0E80256083C85EA010586EA16
:10076000010685FA47F5A3FA87F586FA47F6A5FA52
:1007700087F68EB9EED1F0BC01F0FF0102F007025E
:1007800032B110F8013B013A83EA010313B1F8D109
:100790000020704701387047002D06BF35460338EA
:1007A000073815F0010F07D1013015F4807F02BF23
:1007B000013015F4C03F0130F0BC0138704700BF74
:1007C00081F0004102E000BF83F0004330B54FEA02
:1007D00041044FEA430594EA050F08BF90EA020F6F
:1007E0001FBF54EA000C55EA020C7FEA645C7FEA02
:1007F000655C00F0E2804FEA5454D4EB5555B8BF25
:100800006D420CDD2C4480EA020281EA030382EA95
:10081000000083EA010180EA020281EA0303362D27
:1008200088BF30BD11F0004F4FEA01314FF4801CFA
:100830004CEA113102D0404261EB410113F0004F0C
:100840004FEA03334CEA133302D0524263EB4303C3
:1008500094EA050F00F0A780A4F10104D5F1200E61
:100860000DDB02FA0EFC22FA05F2801841F10001BC
:1008700003FA0EF2801843FA05F359410EE0A5F190
:1008800020050EF1200E012A03FA0EFC28BF4CF0C1
:10089000020C43FA05F3C01851EBE37101F0004577
:1008A00007D54FF0000EDCF1000C7EEB00006EEB84
:1008B0000101B1F5801F1BD3B1F5001F0CD349080E
:1008C0005FEA30004FEA3C0C04F101044FEA445265
:1008D00012F5800F80F09A80BCF1004F08BF5FEAEC
:1008E000500C50F1000041EB045141EA050130BDCC
:1008F0005FEA4C0C404141EB0101013C28BFB1F5DE
:10090000801FE9D291F0000F04BF01460020B1FA28
:1009100081F308BF2033A3F10B03B3F120020CDAFB
:100920000C3208DD02F1140CC2F10C0201FA0CF0D9
:1009300021FA02F10CE002F11402D8BFC2F1200C3E
:1009400001FA02F120FA0CFCDCBF41EA0C019040F4
:10095000E41AA2BF01EB0451294330BD6FEA04043D
:100960001F3C1CDA0C340EDC04F11404C4F1200228
:1009700020FA04F001FA02F340EA030021FA04F33A
:1009800045EA030130BDC4F10C04C4F1200220FA91
:1009900002F001FA04F340EA0300294630BD21FACF
:1009A00004F0294630BD94F0000F83F4801306BF95
:1009B00081F480110134013D4EE77FEA645C18BF89
:1009C0007FEA655C29D094EA050F08BF90EA020F20
:1009D00005D054EA000C04BF1946104630BD91EA18
:1009E000030F1EBF0021002030BD5FEA545C05D11B
:1009F0004000494128BF41F0004130BD14F580045A
:100A00003CBF01F5801130BD01F0004545F0FE41CD
:100A100041F470014FF0000030BD7FEA645C1ABF02
:100A2000194610467FEA655C1CBF0B46024650EA39
:100A3000013406BF52EA033591EA030F41F4002165
:100A400030BD00BF90F0000F04BF0021704730B5EB
:100A50004FF4806404F132044FF000054FF00001C0
:100A600050E700BF90F0000F04BF0021704730B581
:100A70004FF4806404F1320410F0004548BF404256
:100A80004FF000013EE700BF42004FEAE2014FEAAB
:100A900031014FEA02701FBF12F07F4393F07F4F86
:100AA00081F06051704732F07F4208BF704793F089
:100AB0007F4F04BF41F40021704730B54FF460749C
:100AC00001F0004521F000411CE700BF50EA01029F
:100AD00008BF704730B54FF000050AE050EA010248
:100AE00008BF704730B511F0004502D5404261EBB8
:100AF00041014FF4806404F132045FEA915C3FF4F9
:100B0000D8AE4FF003025FEADC0C18BF03325FEA95
:100B1000DC0C18BF033202EBDC02C2F1200300FA46
:100B200003FC20FA02F001FA03FE40EA0E0021FA6B
:100B300002F11444BDE600BF70B54FF0FF0C4CF459
:100B4000E06C1CEA11541DBF1CEA135594EA0C0F0B
:100B500095EA0C0F00F0DEF82C4481EA030621EA46
:100B60004C5123EA4C5350EA013518BF52EA033581
:100B700041F4801143F4801338D0A0FB02CE4FF033
:100B80000005E1FB02E506F00042E0FB03E54FF063
:100B90000006E1FB03569CF0000F18BF4EF0010E5B
:100BA000A4F1FF04B6F5007F64F5407404D25FEA57
:100BB0004E0E6D4146EB060642EAC62141EA55510A
:100BC0004FEAC52040EA5E504FEACE2EB4F1FD0C4C
:100BD00088BFBCF5E06F1ED8BEF1004F08BF5FEACA
:100BE000500E50F1000041EB045170BD06F000467C
:100BF00046EA010140EA020081EA0301B4EB5C0429
:100C0000C2BFD4EB0C0541EA045170BD41F4801120
:100C10004FF0000E013C00F3AB8014F1360FDEBF45
:100C2000002001F0004170BDC4F10004203C35DA21
:100C30000C341BDC04F11404C4F1200500FA05F3A4
:100C400020FA04F001FA05F240EA020001F0004245
:100C500021F0004110EBD37021FA04F642EB0601BB
:100C60005EEA430E08BF20EAD37070BDC4F10C04E5
:100C7000C4F1200500FA04F320FA05F001FA04F2A9
:100C800040EA020001F0004110EBD37041F1000195
:100C90005EEA430E08BF20EAD37070BDC4F12005A0
:100CA00000FA05F24EEA020E20FA04F301FA05F208
:100CB00043EA020321FA04F001F0004121FA04F2B0
:100CC00020EA020000EBD3705EEA430E08BF20EA80
:100CD000D37070BD94F0000F0FD101F000464000BA
:100CE00041EB010111F4801F08BF013CF7D041EA3C
:100CF000060195F0000F18BF704703F00046520040
:100D000043EB030313F4801F08BF013DF7D043EA10
:100D10000603704794EA0C0F0CEA135518BF95EAC6
:100D20000C0F0CD050EA410618BF52EA4306D1D14D
:100D300081EA030101F000414FF0000070BD50EA6C
:100D4000410606BF1046194652EA430619D094EAF6
:100D50000C0F02D150EA013613D195EA0C0F05D1E0
:100D600052EA03361CBF104619460AD181EA030134
:100D700001F0004141F0FE4141F470014FF00000EC
:100D800070BD41F0FE4141F4780170BD70B54FF087
:100D9000FF0C4CF4E06C1CEA11541DBF1CEA135507
:100DA00094EA0C0F95EA0C0F00F0A7F8A4EB0504E9
:100DB00081EA030E52EA03354FEA013100F08880E0
:100DC0004FEA03334FF0805545EA131343EA1263A9
:100DD0004FEA022245EA111545EA10654FEA00265E
:100DE0000EF000419D4208BF964244F1FD0404F517
:100DF000407402D25B084FEA3202B61A65EB030573
:100E00005B084FEA32024FF480104FF4002CB6EB2F
:100E1000020E75EB030E22BFB61A754640EA0C00AF
:100E20005B084FEA3202B6EB020E75EB030E22BFEF
:100E3000B61A754640EA5C005B084FEA3202B6EB30
:100E4000020E75EB030E22BFB61A754640EA9C00EF
:100E50005B084FEA3202B6EB020E75EB030E22BFBF
:100E6000B61A754640EADC0055EA060E18D04FEA7D
:100E7000051545EA16754FEA06164FEAC30343EA1D
:100E800052734FEAC2025FEA1C1CC0D111F4801FEA
:100E90000BD141EA00014FF000004FF0004CB6E7E3
:100EA00011F4801F04BF01430020B4F1FD0C88BF82
:100EB000BCF5E06F3FF6AFAEB5EB030C04BFB6EB8D
:100EC000020C5FEA500C50F1000041EB045170BD80
:100ED0000EF0004E4EEA113114EB5C04C2BFD4EBAD
:100EE0000C0541EA045170BD41F480114FF0000E31
:100EF000013C90E645EA060E8DE60CEA135594EAAD
:100F00000C0F08BF95EA0C0F3FF43BAF94EA0C0FAF
:100F10000AD150EA01347FF434AF95EA0C0F7FF424
:100F200025AF104619462CE795EA0C0F06D152EA78
:100F300003353FF4FDAE1046194622E750EA41065C
:100F400018BF52EA43067FF4C5AE50EA41047FF46D
:100F50000DAF52EA43057FF4EBAE12E74FF0FF3CD2
:100F600006E000BF4FF0010C02E000BF4FF0010CA3
:100F70004DF804CD4FEA410C7FEA6C5C4FEA430C1C
:100F800018BF7FEA6C5C1BD001B050EA410C0CBF6B
:100F900052EA430C91EA030F02BF90EA020F0020CD
:100FA000704710F1000F91EA030F58BF994208BF34
:100FB00090422CBFD8176FEAE37040F001007047F1
:100FC0004FEA410C7FEA6C5C02D150EA013C07D148
:100FD0004FEA430C7FEA6C5CD6D152EA033CD3D093
:100FE0005DF8040B704700BF8446104662468C468D
:100FF0001946634600E000BF01B5FFF7B7FF0028C0
:1010000048BF10F1000F01BD4DF808EDFFF7F4FFE8
:101010000CBF012000205DF808FB00BF4DF808ED73
:10102000FFF7EAFF34BF012000205DF808FB00BF96
:101030004DF808EDFFF7E0FF94BF012000205DF8B8
:1010400008FB00BF4DF808EDFFF7CEFF94BF01206D
:1010500000205DF808FB00BF4DF808EDFFF7C4FF66
:1010600034BF012000205DF808FB00BF4FEA410CAF
:101070007FEA6C5C02D150EA013C0AD14FEA430C92
:101080007FEA6C5C02D152EA033C02D14FF00000CF
:1010900070474FF0010070474FEA410212F500120D
:1010A00015D211D56FF47873B3EB625212D94FEAAF
:1010B000C12343F0004343EA505311F0004F23FA99
:1010C00002F018BF404270474FF00000704750EAEE
:1010D000013005D111F0004008BF6FF000407047AB
:1010E0004FF00000704700BF4A0011D212F5001205
:1010F00011D20DD56FF47873B3EB62520ED44FEA70
:10110000C12343F0004343EA505323FA02F07047EF
:101110004FF00000704750EA013002D14FF0FF302D
:1011200070474FF0000070474FEA4102B2F1E043D0
:1011300024BFB3F5001CDCF1FE5C0DD901F0004CBE
:101140004FEAC0024CEA5070B2F1004F40EB83000E
:1011500008BF20F00100704711F0804F21D113F13A
:101160003872BCBF01F00040704741F480114FEA73
:101170005252C2F11802C2F1200C10FA0CF320FAFC
:1011800002F018BF40F001004FEAC1234FEAD32319
:1011900003FA0CFC40EA0C0023FA02F34FEA430383
:1011A000CCE77FEA625307D150EA01331EBF4FF00C
:1011B000FE4040F44000704701F0004040F0FE4027
:1011C00040F40000704700BF53B94AB9002908BF76
:1011D00000281CBF4FF0FF314FF0FF3000F0AAB9DC
:1011E000ADF1080C6DE904CE00F03CF8DDF804E048
:1011F000DDE9022304B0704738B50022002304461D
:101200000D46FFF70BFF28B920462946BDE83840B8
:1012100000F00AB8204605F1004100F005F8404210
:1012200061EB410138BD00BFD0B50C4B0022064632
:101230000F46FFF781FCFFF757FF0446FFF702FC5C
:10124000074B0022FFF778FC02460B463046394632
:10125000FFF7BAFAFFF748FF2146D0BD0000F03D86
:101260000000F0412DE9F047089D04468E46002B12
:101270004DD18A42944669D9B2FA82F252B101FA4A
:1012800002F3C2F1200120FA01F10CFA02FC41EA5A
:10129000030E94404FEA1C48210CBEFBF8F61FFADF
:1012A0008CF708FB16E341EA034306FB07F199427A
:1012B0000AD91CEB030306F1FF3080F01F8199422D
:1012C00040F21C81023E63445B1AA4B2B3FBF8F007
:1012D00008FB103344EA034400FB07F7A7420AD98E
:1012E0001CEB040400F1FF3380F00A81A74240F2B6
:1012F00007816444023840EA0640E41B00261DB121
:10130000D4400023C5E900433146BDE8F0878B4255
:1013100009D9002D00F0EF800026C5E90001304614
:101320003146BDE8F087B3FA83F6002E4AD18B42EE
:1013300002D3824200F2F980841A61EB0303012098
:101340009E46002DE0D0C5E9004EDDE702B9FFDE84
:10135000B2FA82F2002A40F09280A1EB0C014FEA2F
:101360001C471FFA8CFE0126200CB1FBF7F307FB8C
:10137000131140EA01410EFB03F0884208D91CEB2F
:10138000010103F1FF3802D2884200F2CB804346CC
:10139000091AA4B2B1FBF7F007FB101144EA0144AB
:1013A0000EFB00FEA64508D91CEB040400F1FF313A
:1013B00002D2A64500F2BB800846A4EB0E0440EA28
:1013C00003409CE7C6F12007B34022FA07FC4CEA31
:1013D000030C20FA07F401FA06F31C43F9404FEA24
:1013E0001C4900FA06F3B1FBF9F8200C1FFA8CFE39
:1013F00009FB181140EA014108FB0EF0884202FA8D
:1014000006F20BD91CEB010108F1FF3A80F088804D
:10141000884240F28580A8F102086144091AA4B20A
:10142000B1FBF9F009FB101144EA014100FB0EFE8B
:101430008E4508D91CEB010100F1FF346CD28E45BA
:101440006AD90238614440EA0840A0FB0294A1EB4B
:101450000E01A142C846A64656D353D05DB1B3EBA8
:10146000080261EB0E0101FA07F722FA06F3F140D8
:101470001F43C5E9007100263146BDE8F087C2F17F
:101480002003D8400CFA02FC21FA03F391400143F7
:101490004FEA1C471FFA8CFEB3FBF7F007FB103630
:1014A0000B0C43EA064300FB0EF69E4204FA02F4DC
:1014B00008D91CEB030300F1FF382FD29E422DD92F
:1014C000023863449B1B89B2B3FBF7F607FB163364
:1014D00041EA034106FB0EF38B4208D91CEB0101E4
:1014E00006F1FF3816D28B4214D9023E6144C91A64
:1014F00046EA004638E72E46284605E70646E3E674
:101500001846F8E64B45A9D2B9EB020864EB0C0E7D
:101510000138A3E74646EAE7204694E74046D1E78C
:10152000D0467BE7023B614432E7304609E764443A
:10153000023842E7704700BF054BDA6C0243DA64B9
:10154000DB6C82B018400190019B02B0704700BF75
:101550000010024000F00700C0F10702031D042A3A
:1015600028BF0422062B4FF0FF3303FA02F38CBF8F
:101570000338002021EA030101FA00F0704700005F
:10158000154B9A6D42F080529A659B6D82B003F0C4
:1015900080530193019B114B186910F4807007D0A0
:1015A0001A69D20706D501204FF4807298619A61BA
:1015B00002B070470A4A116D11F0010F18BFD16DCA
:1015C0004FF480701BBF41F00101D16598619861B3
:1015D0000CBF03200220EBE7001002400070004027
:1015E0000028004007B500233F4A0193019B934226
:1015F00075D93E4A136823F0070343F004031360D0
:10160000136803F00703042BFAD1394A136823F453
:10161000C06343F40073136053695B05FCD4354B1E
:101620001A6842F480721A601A685005FCD55A682C
:101630002F4922F0FE4242F080425A600A6842F48A
:1016400080720A60D3F8902022F01802C3F890202C
:10165000D3F8902042F00102C3F89020D3F89020F4
:101660009107FBD5D968244A0A4042F4A05242F0BF
:101670001202DA60DA6842F08072DA601A6842F0C8
:1016800080721A601A689201FCD59A6842F00302CF
:101690009A609A6802F00C020C2AFAD19A681748EC
:1016A00022F0F0029A609A6822F4E0629A609A68E6
:1016B00022F460529A60D3F8882022F44062C3F882
:1016C000882000F0A8F90D4800F0C6F94FF0E0229C
:1016D000136943F00203136103B05DF804FB019B3F
:1016E0000133019382E700BF9F8601000020024082
:1016F00000700040001002408C80FFF900B4C40468
:10170000A34DDFF8A0A22B6EDFF8A0822DE9804860
:1017100043F001032B662B6E93B003F00103029399
:10172000029BAB6D43F08053AB65AB6D03F0805310
:101730000193019BDAF80C20964B22F4E06212042C
:10174000120C1343CAF80C30DAF80C000F21C0F366
:101750000220FFF7FFFE0001C0B28AF82300FFF766
:101760000FFF8D4B4FF018091870FFF73BFF4A46EB
:1017700000210BA805F010F90120FFF7DDFE022083
:101780000024FFF7D9FE032641F662020BA94FF0B1
:101790009040CDE90B260F9400F006FACDE90B96A8
:1017A0004FF0904601270BA940460F9400F0FCF93A
:1017B000B7620BA93046CDE90B740F940D9400F07D
:1017C000F3F948F280122321B2623046C8F828109B
:1017D0000BA9CDE90B27CDE90D440F9400F0E4F9F6
:1017E00021220BA94046CDE90B27CDE90D440F94EA
:1017F00000F0DAF920234FF48072C8F818304FF067
:10180000020BB2610BA94046CDE90BB7CDE90E44FE
:101810000D9400F0C9F94FF40042C8F818B0214601
:10182000B2610BA81C2205F0B7F84A46214605A86C
:1018300005F0B2F8D5F8883023F00303C5F88830F6
:101840002B6E43F480432B662B6E03F4804303938B
:101850003846039BFFF770FE4FF4C063CDE9053BAC
:1018600005A9072330460A93CDE907B4099700F08C
:101870009BF9DAF80C002146C0F30220FFF76AFE5C
:10188000464B0001C0B283F8250320225A60444E23
:1018900011944FF41653CDE90B340BA90C233046A9
:1018A000CDE90F34CDE90D4400F01AFB736823F441
:1018B00090437360B36823F02A03B36033683B43FB
:1018C000336056E8003F43F0200346E80034002C24
:1018D000F7D12146182205A805F05EF81822214606
:1018E0000BA805F059F8D5F8883023F4406343F489
:1018F0000063C5F88830EB6D43F00103EB65EB6DD9
:1019000003F0010304930120049B0C25FFF714FE50
:101910000223CDE90B5303230122CDE90D340BA99A
:1019200008234FF09040CDE90F2300F03DF91D4B07
:10193000D8682146C0F30220FFF70CFE174B0001C8
:10194000C0B283F8460340229A604FF41653CDE9A3
:101950000534CDE90744CDE90954134C05A92046C7
:1019600001F02EFF236843F00103236054E8003F99
:1019700043F0200344E80032002AF7D101F0ECFDE7
:101980000A4B02229A6201F0F9FF02F007F8FCE725
:10199000001002400003FA05E409002000E100E025
:1019A0000038014000ED00E00080004000040048E5
:1019B000FEE7000008B5024805F0AEF8FEE700BFFC
:1019C00054550108FEE7FEE7FEE770477047704791
:1019D0000C4B9A69520704D5596A0B4B186820B909
:1019E00070479B69DB0705D47047084B1B6843B100
:1019F000C9B21847044B186818B1054B1B6803B1EE
:101A00001847704700540040000A0020040A0020D4
:101A1000080A002070474FF47A73B0FBF3F04FF0E0
:101A2000E0230022013858619A6105221A6170474B
:101A30004FF0E02382B01B690193411C019B18BF4A
:101A400001304FF0E02308B902B070471A69D203A1
:101A500048BF00F1FF30F6E7014B1860704700BF48
:101A60000000002030B5D0E900320146007A00289D
:101A700000F08480002B62D0487A01283FD00228F1
:101A800047D0002849D1474C656825EA03056560C1
:101A900025681D4325608C7A6CB1022C3FD0032C45
:101AA00046D0012C48D13F4CE56825EA0305E560A6
:101AB000A5682B43A3600AB34B7A012B41D0022BBC
:101AC00048D0002B4AD103F1804303F582335C6A8E
:101AD00024EA02045C621C6A14431C628B7A6BB1B8
:101AE000022B3ED0032B45D0012B59D12D4BD96A67
:101AF00021EA0201D962996A0A439A6230BD2948F3
:101B0000046824EA0304046044681C434460002021
:101B1000C1E7244804681C43F5E70120BBE7214CDA
:101B2000A56825EA0305A560E5682B43E360C2E7E5
:101B30001C4CA5681D43F6E740F00200BBE71846C1
:101B4000B9E7184B1C6A24EA02041C625C6A14435D
:101B50005C62C3E7134B1C6A1443F6E740F00400D1
:101B6000BCE7104B996A21EA02019962D96A0A43DB
:101B7000DA62C3E70B4B996A1143F6E709490C682F
:101B800024EA03040C604C6824EA03034B600B6AEC
:101B900023EA02030B624B6A23EA02024A62ADE7C0
:101BA0000120ABE7000401402DE9F04F02460D682B
:101BB00095FAA5F44FF0010EB4FA84F403274FF020
:101BC0000F0C6FEA050835FA04F001D1BDE8F08F7B
:101BD0000EFA04F32B4068D04868461E012E1ED82A
:101BE000966893FAA3F9B9FA89F94FEA490907FA0D
:101BF00009F926EA090993FAA3FA8E68BAFA8AFA69
:101C00004FEA4A0A06FA0AF646EA09069660566854
:101C100008EA0609CE686E4349EA06065660D668A9
:101C200093FAA3F9B9FA89F94FEA490907FA09F9C8
:101C300026EA090993FAA3FA0E69BAFA8AFA4FEA70
:101C40004A0A06FA0AF646EA09060228D66018D1B8
:101C5000FF2BD1F814A02AD8D2F8209093FAA3F63B
:101C6000B6FA86F6B6000CFA06F629EA060993FAE1
:101C7000A3F6B6FA86F6B6000AFA06F646EA0906AA
:101C80001662D2F8009093FAA3F6B6FA86F67600BA
:101C900007FA06F629EA060693FAA3F3B3FA83F3E2
:101CA0005B0000FA03F33343136001348BE7D2F88F
:101CB00024B04FEA132999FAA9F6B6FA86F6B600C7
:101CC0000CFA06F62BEA060B99FAA9F6B6FA86F68E
:101CD000B6000AFA06F646EA0B065662D1E713B5D5
:101CE0004FF47A730193C36813F0400302461DD189
:101CF000C16841F08001C160C1684FF0E024C1F3C8
:101D000080111846019B03B109B102B010BD2369CF
:101D1000DB0342BF019B03F1FF330193D168019BB9
:101D2000002BC1F3801108BF0120EBE70020ECE796
:101D3000C36823F08003C3600020704713B54FF4DD
:101D40007A730193C36803F0800363F0A003C36058
:101D5000C3680022C3F340134FF0E021019C04B19B
:101D600013B1104602B010BD0B69DB0342BF019BEB
:101D700003F1FF330193C368019C002CC3F34013AC
:101D800008BF0122EAE7F8B5836916465A065CBF28
:101D900000233360CA2343625323436204460F4641
:101DA000FFF79DFF01281CD0D6F800C03579707967
:101DB000B3792268C7B143EA0C0343EA054322F032
:101DC0007F1243EA002322F4FE4213432360E368B8
:101DD00023F08003E360A3699B0627D42046FFF726
:101DE000ADFFFF236362F8BD0A2122F07F12B3FB2F
:101DF000F1F601FB163343EA061322F4FE4242EAEF
:101E00000C02DBB21343B5FBF1F201FB125545EABC
:101E10000215B0FBF1F201FB1200EDB240EA021034
:101E200043EA0543C0B243EA0023CFE70020D8E7E6
:101E3000F8B5044616460F4631B95378DA0642BF64
:101E400023F010030A337370CA236362532363625F
:101E50002046FFF744FF01281BD0B3787078F5784F
:101E600036784FEA463CBFB161681C4A0A401343CA
:101E700043EA0C0343EA054343EA00236360E36853
:101E800023F08003E360A3699B0624D42046FFF778
:101E900055FFFF236362F8BD0A2167680F4EB3FB4D
:101EA000F1F201FB123343EA02133E40B5FBF1F2BB
:101EB00001FB125545EA0215DBB2B0FBF1F246EA2E
:101EC0000C0601FB12003343EDB240EA021043EA74
:101ED0000543C0B2D0E70020DBE700BFC00000FF31
:101EE00038B50368DB0704460D4601D5012038BD2F
:101EF000EA686B68016813432A691343AA691343AC
:101F00001E4A0A40134303604368AA6823F44053FF
:101F10001343436083686A6923F440731343836007
:101F2000174B98421AD1032000F0D8F80028DDD0D2
:101F30002A68002ADAD0A969B1F5004F4FEA5203A6
:101F400016D103EB40034FF6F070B3FBF2F31840E9
:101F5000C3F342030343E3600020C8E7094B984200
:101F600001D10C20E0E7084B9842BFD13020DBE7DD
:101F70000344B3FBF2F39BB2EDE700BFF369FFEF5D
:101F8000003801400044004000480040024B1868FF
:101F9000C0F38020704700BF00100240024BD3F80E
:101FA0009000C0F34000704700100240024B1868D8
:101FB000C0F3C000704700BF00100240034B044A4A
:101FC0009B68C3F30313D35CD840704700100240F2
:101FD0006D550108034B044A9B68C3F30223D35C8D
:101FE000D8407047001002407D550108374A936879
:101FF00003F00C03082B10B563D010D80BB1042BE1
:1020000061D0FFF7D3FF324C014600284AD1FFF7D9
:10201000CDFF002841D0136854F8210024E00C2B98
:10202000EFD1D36803F00303022B32D0032B32D05D
:10203000FFF7BCFF26490446E0B9FFF7B7FFA0B1A0
:10204000136851F82430D068D168D268C0F3021008
:102050000130B3FBF0F0C1F306235843C2F34163F0
:1020600001335B00B0FBF3F010BDD2F89440C4F331
:102070000324E6E7FFF79AFF28B11368C3F30313BD
:1020800051F82330DFE7D2F894301B0903F0F00356
:10209000F6E7104BD7E7104BD5E7D2F89410C1F311
:1020A0000321B9E7FFF782FF28B11368C3F30313D5
:1020B00054F82300D8E7D2F894301B0903F0F0035A
:1020C000F6E70548D0E70348CEE700BF001002401E
:1020D000885501080024F40000127A00032810B586
:1020E00024D1314C314AD4F8883003F0030343F44F
:1020F0004033934209D0B3F1031F2ED0013A9342EB
:1021000009D1BDE81040FFF771BFFFF73FFF00287E
:1021100047D1002009E0FFF769FFFFF74FFFA368F1
:10212000234AC3F3C223D35CD84010BD0C2823D16B
:102130001D4B204AD3F8883003F00C0343F44023AE
:102140009342E2D006D8B3F5402F0DD0043A934223
:10215000D7D0DEE7B3F10C1FDBD1FFF71FFF00285C
:10216000D7D04FF40040E0E7FFF740FFFFF726FF2E
:10217000BDE81040FFF72EBF3028CAD10A4B0E4AE7
:10218000D3F8883003F0300343F440139342BCD0BB
:1021900004D8B3F5401FE7D0103AD8E7B3F1301FA9
:1021A000DAE70648C1E700BF001002400200030062
:1021B0007D55010808000C00200030000024F400C8
:1021C00008B5154BD3F888301840B0F5006F14D01F
:1021D00005D8C0B1B0F5806F0BD0002008BDB0F5B8
:1021E000406FFAD1FFF7DAFE0028F6D04FF4004036
:1021F000F4E7BDE80840FFF7F9BEFFF7C7FE002887
:10220000EBD00648EAE7FFF7F1FEFFF7D7FEBDE89F
:102210000840FFF7DFBE00BF001002400024F400BA
:10222000034AD2F8883043F47003C2F8883070470C
:1022300000ED00E00B4A116810B5034609B90A49E0
:102240001160106809490A4C0344091B8B4206D9E6
:1022500004F03CF80C2303604FF0FF3010BD136016
:10226000FCE700BFE8090020A80E00200080002045
:10227000000400000120704708B504F027F8162379
:1022800003604FF0FF3008BD08B504F01FF81623B7
:102290000360FEE770B50D4614460E46731B9C4264
:1022A00001DC204670BDAFF3008006F8010BF5E7B6
:1022B0004FF0FF3070474FF400534B6000207047E1
:1022C0000120704700207047002210B504461046D8
:1022D000A15CA1F13003092B0BD8A0F13003032A34
:1022E00001EB030002F1010218BF0001042AEFD143
:1022F00010BDA1F14103052B02D8A0F13703EEE791
:10230000A1F16103052B02D8A0F15703E7E70020F4
:10231000EEE700002DE9F84F0A688B6880465D1CE7
:10232000D018D35C222B8A46154440F0DD804C68DF
:102330002F460023B91AA14280F0D680397822298D
:102340000ED1C3F10103381ADAF81020184490476F
:102350008346002800F0C880DFF8989104460FE01B
:102360005C2905D10137B91A8C4240F2BD80013396
:102370000137DFE72B785C2B12D004F8013B0135E5
:10238000BD42F7D3002323701023C8E9033BDAF8DA
:102390000030FB1A0133CAF808300120BDE8F88F7D
:1023A0007A1B002A0DDD6B78752B0AD86D2B12D89D
:1023B000622B2BD026D82F2B29D05C2B27D0222B79
:1023C00025D0DAF8143058469847DAF80000281A71
:1023D000CAF808008BE06E3B072BF2D801A151F838
:1023E00023F000BF19240008C3230008C3230008FA
:1023F000C32300081D240008C3230008212400086B
:1024000025240008662BDCD10C2300E0082304F807
:10241000013B02231D44B3E70A23F8E70D23F6E747
:102420000923F4E7052ACCDDA81CFFF74DFFA0F532
:102430005C43B3F5806F0646C3D3A0F55843B3F5AC
:10244000806F2DD2AB1DFB1A052BBADDAB795C2B4F
:10245000B7D1EB79752BB4D105F10800FFF734FF44
:10246000A0F55C43B3F5806FABD209EA8626C0F3D2
:102470000900304300F580360C234FF0F00C0420A7
:1024800000F1FF3E54FA8EFEA645F2B224D1012897
:1024900014BF42EA0C0202F07F0222700444B9E742
:1024A0007F280AD9B0F5006F0CD3B0F5803F0ED36A
:1024B000B0F5881F85D20623DFE706234FF0000C16
:1024C0000120DDE706234FF0C00C0220D8E70623E9
:1024D0004FF0E00C0320D3E702F03F0262F07F01EF
:1024E0000EF80119B609CFE7002D7FF46EAF00207A
:1024F00054E700BF00FC0F0010B528B1016889B196
:10250000D0E901329A4202D310BD01328260826862
:10251000934203D98C5C202CF7D9F5E7F4D1013B29
:102520008360F1E70846EFE710B1806800B101B9B8
:10253000704700680139F9E738B5044638B10068DA
:1025400028B1A5682844FEF77BF82844A06038BD70
:1025500070B50446B8B1056865B1436813B18268C7
:10256000934210D900290EDBA2684E1C1644B342D8
:1025700002D31544284670BD236923B9B6F1804FB4
:1025800003D3002E0FDA0025F4E77600236A6BB13F
:102590002846314698470546B0B9E3692068984710
:1025A000C4E90055E6E76FF00046EFE7A36930465F
:1025B000984705460028F0D0A26821680132FDF74F
:1025C0001FFEE36920689847A368C4E900561D44CC
:1025D000D0E70000F8B50D460446002834D00029A5
:1025E00031D08468FAB9194E74B3236AC3B1AB42CF
:1025F00021D005F1FF3C013B1CF8011F8A5D02F070
:102600000302012A13F8012FB05C00F003000F460B
:1026100008BF01F12007012808BF203297420FD0E0
:102620002468E1E724687CB1216A21B12846FDF7DE
:102630008BFE0028F6D1236A002B08BF002403E09C
:102640000029D9D1F7E70C462046F8BD15630108EB
:1026500081B138B181420DD0836823B98160C1E96D
:102660000031012070475A68002AFAD011604A6090
:102670005960F6E7002070472DE9F84F06460846F6
:1026800011B90020BDE8F88F36B3444F31464FF002
:10269000000A01240D4611F8013B3BBBAD1B55441C
:1026A000E91CFFF755FF07460028EAD04FF0220B40
:1026B000441C05F1010905F1020880F800B0BAF1E7
:1026C000000F29D12A4631462046FDF799FD07F82B
:1026D00009B007F808A007E00321FFF739FF002839
:1026E000CFD02F4904F044FD0120CBE7222B0BD89B
:1026F000072B0CD9A3F10802D2B204FA02F23A4233
:1027000005D00AF1010AC5E75C2BC3D1F9E71F2BFD
:1027100098BF0AF1050ABDE7DFF888B0013E5C25E5
:102720004FF0740A16F8013F2BB9222207F809204E
:1027300007F80830D8E71F2B07D9222B05D05C2BD0
:1027400003D023702046441CECE7204600F8015BD0
:1027500032780D2A0AD8072A1AD9A2F10803052BC4
:1027600016D8DFE803F009120E150C10222A01D04A
:102770005C2A0DD16270E6E762236370E3E76623AB
:10278000FBE76E23F9E77223F7E784F801A0DAE7A5
:10279000594604F0D3FB601DD5E700BF37000004A5
:1027A000B8550108BB55010837B5054680B1FDF79E
:1027B00047FF084B421C1B6801921046984704468D
:1027C00018B1019A2946FDF71BFD204603B030BD24
:1027D0000446FAE704000020F8B50D461446074603
:1027E00000B3F9B1F2B190421CD093B1D66846F46F
:1027F0000076E3689B0504D4206A10B10A4B5B683D
:1028000098472562E66021463846BDE8F840FFF764
:102810001FBF0846FFF7C8FF054618B1E66826F453
:102820000076E6E70020F8BD0400002010B503465E
:1028300028209847044618B12822002104F0ACF85B
:10284000204610BD2DE9F04F0C468DB0804608B9EA
:1028500000255DE00029FBD0057B102D00F00D81E7
:1028600018DC6B1E072BF3D8072BF1D801A252F806
:1028700023F000BFFF28000819290008512800088C
:10288000E9280008512800085128000851280008AC
:1028900029290008402D00F01F81802D00F0D880EC
:1028A000202DD5D1866801212046FFF751FE002852
:1028B000CED05B230370A3680133A360E3680133C8
:1028C000E3602C274FF00008002E40F0DC8002214E
:1028D0002046FFF73DFE0028BAD05D230370467006
:1028E000E368013BE36008E005212046FFF730FE86
:1028F0000028ADD0914904F03BFC012508E00621F9
:102900002046FFF725FE0028A2D08D4904F030FCB8
:1029100028460DB0BDE8F08F05212046FFF718FED0
:10292000002895D08749E6E7D0E9066700211622FE
:1029300006A8059104F030F800220023CDE9022317
:10294000304632463B463946FEF790FB90B927F0B9
:10295000004B7D4B4FF0FF3230465946B246FEF7F2
:1029600085FBF0B9784B4FF0FF3230465946FEF701
:102970005FFBB0B9714905A804F0FAFB0425691C96
:102980002046FFF7E5FD00283FF462AF034605A9A6
:102990004619B34257D100234355A0682844A0608C
:1029A000ABE7D8F814502846FEF75CF802460B4611
:1029B00030463946FEF728FB48B164492A4605A847
:1029C00004F0BCFA0546192D3FF642AFD7E760493F
:1029D00032463B4605A804F0B1FA5E49054602AA14
:1029E00005A804F0CBFA012826D1DDE9028929F0F7
:1029F0000043CDF800800193DDE90023504659469D
:102A0000FEF70CFB08B9CDE900AB32463B46404629
:102A10004946FDF7D9FE504B804621F0004900227F
:102A2000DDE90001FEF788F802460B4640464946BC
:102A3000FEF7FEFA0028C6D1484932463B4605A8B3
:102A400004F07CFABEE711F8012B1A700133A0E7FD
:102A5000006900283FF4FCAEFDF7F2FD421C114670
:102A600020460092FFF774FD00283FF4F1AE009A73
:102A7000D8F81010FDF7C4FB3FE700690DB0BDE8C2
:102A8000F04FFFF7F9BD21463046FFF7DBFE002887
:102A90003FF4DEAE2046FFF74FFD3368BBB16369FC
:102AA000002B14BF4FF002094FF0010909F1010199
:102AB0002046FFF74DFD00283FF4CAAE077063695A
:102AC0003BB9431C83F80080A3684B44A36036687D
:102AD000FAE6831C4570F5E74B698568002B14BF47
:102AE00002260126711C2046FFF732FD00283FF424
:102AF000AFAE7B230370E26863690132E2600BB121
:102B00000A234370A3683344A36009263A27636904
:102B100035BB002B00F08480E16801312046FFF7CF
:102B200017FD00283FF494AE6369002B40F08280CB
:102B300003467D221A7000225A70D1E6C155010861
:102B4000C6550108CC550108FFFFEF7FD15501089C
:102B5000D4550108DB5501080000B03CDF550108E1
:102B600073B1E1682046FFF7F3FC00283FF470AE34
:102B70000246E168131A99424FD8A3680B44A36038
:102B8000286A2146FFF778FD00283FF461AE204611
:102B9000FFF7D2FC6369002B14BF4FF002084FF01F
:102BA000010841462046FFF7D3FC00283FF450AE11
:102BB0000770636903B14670A3684344A36021466C
:102BC0002846FFF73FFE00283FF442AE2046FFF7BD
:102BD000B3FC2B686269B3F1000818BF4FF001081D
:102BE000002A18BF08F1010808F101012046FFF78B
:102BF000AFFC00283FF42CAE2B6813B12C2300F857
:102C0000013B636913B10A2300F8013B0023037001
:102C1000A3682D684344A36079E702F8016BA8E735
:102C200002217BE703F8015BE268191A013A8A4244
:102C3000F8D87EE703460925F6E700BF70B5234DB7
:102C40008AB00E4624220021044601A803F0A4FE07
:102C50002B684FF4807098474FF4807203460190C0
:102C6000029295E8070006960AAE06E907007BB1D6
:102C700001A92046FFF7E6FD50B101A8FFF75CFC73
:102C8000AE6803995EB101980131B0470446D0B9EE
:102C9000019CC4B120466B689847002413E02B6860
:102CA000481C984704460028F2D0039A029B0199D9
:102CB00001329A4228BF1A46FDF7A2FA039BE65456
:102CC00001986B68984720460AB070BD0400002048
:102CD00070B5104D044604B970BDE3682668D90587
:102CE00003D4A06868B9206988B9E3689B0503D458
:102CF000206A08B16B68984720466B68984734464D
:102D0000E9E7FFF7E5FFE368DA05ECD5EDE76B6887
:102D10009847EAE7040000202DE9F047064692B004
:102D20000C4609B9002023E00F68002FFAD08D6807
:102D3000D1F8048005F10409C1450BD89249042259
:102D4000781904F073FA28B90423F360C4F80890E2
:102D500001200DE005F1050AD0450CD38B49052271
:102D6000781904F063FA30B90120F060C4F808A0C3
:102D700012B0BDE8F087C1450CD885490422781906
:102D800004F054FA30B902230120F3607061C4F8F2
:102D90000890EDE74545C5D27B5D222B07EB05008A
:102DA00006D12146304612B0BDE8F047FFF7B2BA6F
:102DB0002D2B03D0A3F13002092A62D8002302AAE6
:102DC0000193A8EB050517464FF02E0E10F8011BD6
:102DD000392910D82A291BD9A1F12B0CBCF10E0FCF
:102DE00016D8DFE80CF00D150D3B150D0D0D0D0D72
:102DF0000D0D0D0D0D0001F0DF0CBCF1450F07D1DD
:102E0000117001333F2B02F1010201D0AB42DDD141
:102E100048336B44002503F8405C01A9384605F0AF
:102E200001FCDDF804A0BA4559EC108B3FF47AAFF1
:102E300086ED060B52A3D3E9002310EE100A494693
:102E4000FEF700F968B16FF000437361AAEB070A5F
:102E5000A76808235744F360A76079E782F800E089
:102E6000CFE74C4B002240464946FEF7E1F810B14F
:102E70004FF00043E9E740464946FEF70DF970611F
:102E8000E4E75B2B54D1E368B3F57A7FBFF44AAF34
:102E90000133E3607B5D5B2B7FF444AF0135A560BC
:102EA0002046FFF729FBD4E90123934264D222682C
:102EB000D25C5D2A0DD100252F46E368013BE3601B
:102EC00007B17D602023C6E90273A3680133A360C4
:102ED0003EE7013B0025A3602F462069FFF7A6FCD3
:102EE000A8460546002800F09C80FFB1C8F8000005
:102EF000C0F80480A3680133A3602046FFF7FCFA02
:102F000021462846FFF708FF002800F08D80204664
:102F1000FFF7F2FAD4E90123934280F0858022681A
:102F2000D35C2C2BD9D05D2B7ED1C6E70746E1E7D9
:102F30007B2B7FF4F7AEE368B3F57A7FBFF4F2AE94
:102F40000133E3607B5D7B2B7FF4ECAE0135A56044
:102F50002046FFF7D1FAD4E9012393420CD222682C
:102F6000D25C7D2A18D100252F46E368013BE3603F
:102F700007B17D604023A6E7013BA360D2E600BF16
:102F80000000C0FFFFFFDF41C1550108C655010821
:102F9000CC5501080000E0C10025013BA3602F468D
:102FA000A8462069FFF742FCA9460546002838D00C
:102FB000AFB3C9F80000C0F80490A3680133A36060
:102FC0002046FFF799FA21462846FFF7A3F958B3A0
:102FD0002046FFF791FA2B692B62D4E90123934233
:102FE000C5F8108020D22268D25C3A2A1CD1013365
:102FF000A3602046FFF780FA21462846FFF78CFEA3
:1030000090B12046FFF778FAD4E9012393420BD21E
:103010002268D35C2C2BC4D07D2B05D1A5E70746B5
:10302000CBE7002F3FF47EAE3846FFF751FE79E63E
:103030002DE9F043304F89B005460C461646002175
:103040001C2201A84FF00009984603F0A5FCC7E92F
:103050000099002D46D0002C39D0284B93E807006A
:1030600008ABCDE9015403E90700FFF7DFFB044695
:1030700068B3019870B1039B5BB9029B042B06D91E
:103080001F49032204F0D2F808B90323039301A8CF
:1030900000E04846FFF730FA01462046FFF73CFEC5
:1030A00090B1B8F1000F04D1F6B9204609B0BDE8DF
:1030B000F08301A8FFF720FADDE90223934203D24F
:1030C000019AD35C002BEFD02046FFF701FEDDE92B
:1030D00002329A420DD303B1013B0EB1EA183260BD
:1030E000C7E900530024E0E7019B039A13443360CF
:1030F000DBE71346F1E700BFEC09002004000020E5
:10310000E655010837B50D460192044650B1FDF76A
:1031100097FA019B411C2A46204603B0BDE8304087
:10312000FFF786BF03B030BD00221146FFF7EABFAC
:103130000121FFF783BD10B18368002003B97047F8
:103140001B680130FAE7002901DBFFF7EDB9002029
:1031500070470022FFF73EBAFFF77ABA0023FFF765
:103160003BBB000000000000174BD0B5186857ECBF
:10317000106BFFF75BFB044670B10823C360C0E926
:1031800006670FA3D3E9002330463946FDF75AFFFF
:1031900020B16FF0004363612046D0BD0B4B00228D
:1031A00030463946FDF744FF10B14FF00043F2E7D7
:1031B00030463946FDF770FF6061EDE7AFF3008000
:1031C0000000C0FFFFFFDF41040000200000E0C15D
:1031D00037B505460191FFF7C7FF0199024604463E
:1031E00000232846FFF7F8FA054618B92046FFF7EE
:1031F0006FFD2C46204603B030BD000038B50A4BA9
:1032000005461868FFF712FB044658B11023C36047
:103210002846FFF7C9FA0546206118B92046FFF78E
:1032200057FD2C46204638BD0400002037B5054622
:1032300010460191FFF7E2FF019902460446002380
:103240002846FFF7C9FA054618B92046FFF740FDA2
:103250002C46204603B030BD08B5044B1868FFF774
:10326000E5FA08B12023C36008BD00BF04000020B8
:1032700008B5044B1868FFF7D9FA08B14023C360BA
:1032800008BD00BF0400002020B1007BA0F10803AE
:1032900058425841704720B1007BA0F110035842BA
:1032A0005841704720B1007BA0F12003584258419B
:1032B00070470000024B1868C0F30020704700BF41
:1032C000007000400048704700F80108F8B5074654
:1032D00000F00AFA194800F01DFA60B3BDE8F840A2
:1032E00000F062BAC8001EF8016BA0F12005C0F121
:1032F000200C06FA05F526FA0CFC013145EA0C050E
:103300008640082942EA060243EA050302D008196A
:103310000B28E7D904F1006000F5FC3000F024FA36
:103320000028DBD10834102CD8D0002207EB040E83
:1033300013461146EBE70446F7E700BF00F8010823
:10334000084AD36803F0800363F0A003D360064B00
:10335000D168890601D500207047013BF8D10120D2
:10336000704700BF00280040A1860100074BDA68C3
:1033700042F08002DA60064AD968490601D5002089
:103380007047013AF8D10120704700BF0028004083
:10339000A1860100034AD36823F08003D360FFF7BE
:1033A000CFBF00BF002800402DE9F041274CA369A2
:1033B00023F48073A361E36D43F00103E365CA2343
:1033C00063625323636280460E461746FFF7CEFFC3
:1033D00008B9FF2363620A21256CB8FBF1F301FBF6
:1033E000138848EA0313B7FBF1F25FFA83F801FB95
:1033F000127725F07F1347EA021723F4FE43B6FB4A
:10340000F1F201FB126646EA021643EA0843FFB2F4
:103410003B43F6B243EA062343F480032364236C60
:1034200003F07F3343F000432364A36943F48073C4
:10343000A361A36943F48053A361FFF7ABFFFF23AC
:1034400000B96362014A5362BDE8F0810028004080
:1034500070B5FFF775FF214A146816681568116882
:1034600010681268C5F30235C1F3032105EB850529
:10347000C4F3015401EB450304EB8404C6F3034198
:1034800001EB440402F00F01154AC0F30210526828
:1034900000EB800001EB400111444FF4616202FB3C
:1034A00004113C2414FB03110E4B994284BFA1F577
:1034B000A831A1F5C0714FF46163B1FBF4F204FBD4
:1034C0001212B1FBF3F0D2B203FB1011C0B2B1FB88
:1034D000F4F1BDE87040C9B2FFF766BF00280040B4
:1034E00000F801087F510100F7B50023CDE9003352
:1034F0000746FFF7DFFE01280E46154608D0144A9E
:10350000136843F480731360FFF7D4FE0028FBD0E8
:10351000104CCA236362532363622046FEF7DFFB2D
:1035200000216A46204600918DF804708DF80560F0
:103530008DF80650FEF727FC2046FEF7F9FB044AFB
:10354000FF236362136823F48073136003B0F0BD3C
:10355000007000400028004010B5414AD2F8903079
:1035600088B003F440730021B3F5807F009136D01A
:10357000936DD80009D4936D43F080539365936D98
:1035800003F080530193019B0121FFF793FE012873
:1035900008D03448036843F480730360FFF78AFE61
:1035A0000028FBD0D2F8903023F01803C2F89030F6
:1035B000D2F8903043F00103C2F89030D2F8903046
:1035C0009B07FBD5D2F8903023F4407343F480730B
:1035D000C2F8903019B1936D23F080539365D2F8FF
:1035E000903043F40043C2F8903000244FF480231D
:1035F000CDE9023402A81C4B0493FEF733FA1B4BAF
:10360000F02283F829234FF400725A60184B1A688D
:1036100003F1236303F5173303F51E739A421AD09F
:1036200001236A46214613488DF800308DF8013099
:103630008DF802308DF80340FEF7FAFB2246214652
:103640002046FFF751FF0C4A07CA05AB83E8070085
:103650001846FFF73BFEFFF7FBFE08B010BD00BFAA
:1036600000100240007000400101010000E100E094
:1036700000F801080028004048550108054B1A6D64
:10368000D20705D5DA6D42F00102DA65FFF7E0BE38
:10369000704700BF00280040124B00221969C9037F
:1036A00009D41A6912F0080F1A690DD042F0080205
:1036B0001A610120704701328242EFD91A6922F45F
:1036C00080321A6103207047D20603D51A6942F08E
:1036D0001002EDE7186910F02000EBD01A6942F0F3
:1036E0002002E5E700200240084B1A69D203FCD40F
:1036F0001A6942F45E721A615A69002ABFBF044A0D
:103700009A6002F188329A60704700BF0020024040
:103710002301674538B500F17845B5F5003F1DD266
:103720000F48FFF7B9FFC0B90E4C636943F00203BD
:103730006361636923F4FC7363616069ED0A40EAC5
:10374000C50565616369064843F480336361FFF72B
:10375000A3FF636923F00203636138BD0120FCE726
:1037600040420F0000200240F8B505460C481746BD
:103770001E46FFF791FF68B90A4C0948636943F098
:10378000010363612F60FFF787FF20B1636923F0B6
:1037900001036361F8BD6E600148FFF77DFFF5E747
:1037A00040420F0000200240044B1A69D203FCD4AF
:1037B0005A6942F000425A61704700BF002002403F
:1037C00070B5056815F0010504460E4601D00120CC
:1037D00070BDF26873680168134332691343144A79
:1037E0000A40134303604368B26823F44053134311
:1037F00043608368726923F44073134383604FF41A
:103800004060FEF7DDFC0028E1D03268002ADED0FF
:1038100051088C464FF480762946E0FB06C12B46C2
:103820006046FDF7D1FCC0F31300E0602846CFE707
:10383000F3E9FFEF01F0D8BE00F5805393F82D298E
:1038400032B993F82E391BB900F5CC5001F0CCBE3B
:1038500000F5AA50083001F007BA13B5044608462F
:103860000191FCF7EDFE01990246204602B0BDE849
:103870001040FCF7C5BC00002DE9FF47044604F1E9
:10388000380900F0E3F904F59E68484604F5A755A9
:1038900000F0C2FA1835404600F0C4FA284600F09D
:1038A0005DFB04F5AA50083001F086F904224FF0C0
:1038B0009041684601F098FA082204F5AB5A0DEBE6
:1038C00002004FF0904101F08FFA02AB6A462349A3
:1038D000504601F05FFB04F5B6564FF400724FF00E
:1038E0009041684601F080FA18364FF480624FF03C
:1038F000904102A801F078FA04F58057184902AB0C
:103900006A46304601F0D4FC07F6441300229A625E
:10391000144B1C60144B3046C4E90C3401F02FFCEE
:10392000504601F06DFB114BC7F84445C3F80090B9
:103930000F4BC3F800800F4B1D600F4BC7F840358D
:10394000284600F01FFB284600F09AFB304601F0A5
:1039500022FC204604B0BDE8F08700BF0080004094
:1039600000380140100A0020613A0008FC090020DC
:10397000F80900200C0A0020D939000838B5064D96
:103980002B683BB941F6881001F08CF90446FFF72B
:1039900073FF2C60002038BDF409002010B5054CE1
:1039A000206800F04DFA20B92068BDE8104000F012
:1039B00075BA10BDFC0900200B1DB3F5805F00F542
:1039C000805388BF002119601B6818440368136086
:1039D000081D70470000000073B51D4D04466A467F
:1039E0002868FFF7E9FF01AA01462868FFF7E4FF0E
:1039F0009FED187ADDED016A009DC6EE877A04F529
:103A00008054B7EE087AF4EEC77AF1EE10FA0CDCC7
:103A100004F63C13C3ED007A0F4B04F63814186813
:103A2000256000F01FF902B070BD17EE900AFDF797
:103A30002BF805A3D3E90023FCF7C6FEFDF774FBC2
:103A400004F63C163060E7E783C0CAA14536F03F74
:103A5000F80900200050C347100A002000000000B1
:103A60002DE9FF41704C054602AA2068FFF7A4FF2C
:103A700003AA0146206805F58054FFF79DFF04F571
:103A80001362029B136004F634120399116004F66A
:103A9000381205F5C951136005F5CA534FF07E522F
:103AA00018461A601031043000F00AFD5F4B9A6826
:103AB00022F0204222F03F029A609A6822F01042DF
:103AC00022F03F0242F080529A609A68D1070AD4ED
:103AD0009A6822F0004222F03F0242F001029A600E
:103AE0001A68D207FCD5514A936823F0004323F0AB
:103AF0003F0343F00403936013685B07FCD5136C2A
:103B0000042111609BB24FF4FA62534340F6FF72F6
:103B1000B3FBF2F39BB2ADF80630BDF8060080B2FD
:103B2000FCF7A0FF424B0022FDF730F902460B469E
:103B3000FCF74CFE3AA3D3E90023FCF7FDFFFDF7A9
:103B4000F3FA04F29C6304F644121863D2F800807E
:103B5000C3F8188004F66C12D2F800E0C3F81CE039
:103B600004F66412D2F800C0C3F82CC004F5156244
:103B700017681F6205F5CB5216689E6204F648125C
:103B80001168596204F64C1204F6F40412685A6182
:103B9000284B20631B78C4F81880C4F81CE0C4F8D4
:103BA0002CC02762A66261626261032B2AD8DFE81B
:103BB00003F02502132C05F5B4501F491C30FFF704
:103BC0004CFE1E4A05F5CC534FF4FA7105F5AA5088
:103BD000083001F03BF815E005F5AB54184904F541
:103BE0009E70FFF73AFE05F5C75015491430FFF7F0
:103BF00034FE204601F0B4F9FFF72AFC05F5CC505D
:103C000001F0F2FC04B0BDE8F0810E4B02229A6292
:103C100042F210710C4A2B46D8E700BFAFF3008088
:103C2000B53134DDC17EFB3FF809002000000450AF
:103C300000408F40E4090020EA55010835380008AB
:103C4000EF550108000400483938000810B5044653
:103C5000183000F0B1FF43F22773E381002323748F
:103C6000204610BD0D4A0E490023036010B51060B8
:103C70000C4A0D4C11600D4A0D494360116061689A
:103C80000C4A21F07F7121F45F3121F47F7121F022
:103C900003010A436260037410BD00BF000A0020E4
:103CA000ED3D0008040A002000540040080A0020EE
:103CB000113E0008882001020B4B0C4A18600C4B87
:103CC0000C491A600C4B0D4A1A604A680C4B22F0E2
:103CD0007F7222F45F3222F47F7222F003021343D8
:103CE0004B60002303747047000A0020F13D000878
:103CF000040A002000540040080A0020153E000875
:103D000088240602FFF7D8BFF8B52DED028B027CA0
:103D1000531CDBB20244062B0374044611722AD1F1
:103D2000027A437A9FED2B7ADFED2B8A2B4FC67AEE
:103D3000057B386803EB022307EE903AF8EEE77A4A
:103D400067EE877A87EEA88ADFED257A38EE678AF4
:103D500000F06EF80146386800F5805257685368E5
:103D60000433B3F5805F0BD91368032B06D800F03A
:103D700063F800232374BDEC028BF8BD04230027F5
:103D80005360074487ED008A576853680433B3F5DE
:103D9000805F04D91368032BE9D904230027360276
:103DA00007EE906AB8EEE77A07EE905ADFED0D6AFB
:103DB0005360F8EE677AC219E7EE267A0A480B4696
:103DC00087EEA87A006882ED007AD4E90C1200F040
:103DD0004BF8CEE700002F4300FF7F47F809002093
:103DE000000034420000C842FC090020FFF78CBFED
:103DF000FFF78ABF044AFD2191620346034A64210A
:103E0000183000F023BF00BF00540040053D0008FB
:103E1000FFF7F0BFFFF7EEBF0022C0F8B024C0F8F4
:103E2000B424704700F5805300221A605A6070472E
:103E300000F580504068704700F580504160704741
:103E4000D0F8B424D0F8B004131A5842584170473F
:103E5000D0F8B434D0F8B0040133642B28BF002369
:103E6000C31A58425841704770B504461E46FFF7C2
:103E7000EFFF90B9D4F8B4540C235D43631961513A
:103E8000C3E90126D4F8B4340133C4F8B434D4F807
:103E9000B434642B08BFC4F8B40470BDD0F8B03497
:103EA0000C225343C21810B50446C358D2E901018D
:103EB0009847D4F8B0340133C4F8B034D4F8B034EF
:103EC000632B84BF0023C4F8B03410BD00207047BA
:103ED000044B054A1860054B1A60054B054A1A60E9
:103EE000704700BF000A002015410008040A0020A6
:103EF000080A00207141000808B5FFF7E9FF0849EA
:103F00000023C3734A68074B22F07F7222F45F32AA
:103F100022F47F7222F0030213434B6008BD00BFFE
:103F200000540040EE240302FFF7E6BF084908B53D
:103F3000FFF7CEFF4A68074B22F07F7222F45F3210
:103F400022F47F7222F0030213434B6008BD00BFCE
:103F500000540040EE200102FFF7E8BF10B5044610
:103F6000203000F029FE064BC4E910344823E372E8
:103F70004FF4B043A3810023A373204610BD00BFBC
:103F8000C94200082DE9F341354C226822F00402B1
:103F90002260226822F002022260324A0346106840
:103FA00092880090ADF804206F4603F1120603F1E9
:103FB0001E0861682C4D2D4B29400B43636017F898
:103FC000013BA3620120FDF733FD6268284B2A40C4
:103FD000134363600120FDF72BFD6423A2695107A1
:103FE00001D4013BFAD1616A0120C9B20D02FDF78B
:103FF0001FFD6423A269520701D4013BFAD1616A13
:104000001C48C9B2294326F8021B02F04BF80120D4
:10401000FDF70EFD4645CCD1174A184BD068C0F3CA
:104020000220FFF753FF0001C0B283F81F034FF0D7
:1040300000411960D068C0F30220FFF747FF00017C
:10404000C0B283F8200301225A60236843F00403BE
:104050002360236843F00203236002B0BDE8F081CF
:104060000054004003560108008000FCEE200102CD
:10407000EE240202F555010800ED00E000E100E049
:104080000022026082774260FFF750BF37B5C27BE3
:10409000531CDBB20244032BC3730446117206D1D6
:1040A000837F012B05D0032B14D00023E37303B0CF
:1040B00030BD02238377437A027A1B0243EA02432C
:1040C000827A13438363104A03463221203000F082
:1040D000BDFDEAE7437A027A016C01911B0243EAD3
:1040E0000243827A1343C363084B426C1D68084B3A
:1040F00000921868FFF79CFEDDE900210346284680
:10410000FFF7B2FED1E700BF593F0008FC090020CD
:10411000F8090020FFF7BABF837F10B50446032BD0
:104120000FD8DFE803F00211171C0E4BC27A9A6217
:1041300001230D4AA3772346142104F1200000F047
:1041400085FD0023E37310BD027B064B9A62074A8C
:104150002346F1E7034B427B9A620323E9E7827B24
:10416000F3E700BF00540040593F0008293F000812
:10417000FFF7D2BF2DE9F04F438BC76B4F4EB0F81E
:104180001480048BB0F812A0B0F816B0D0F83890B4
:10419000A7EB0327838B7B4344BF03F5FF0303F5A2
:1041A000FF432DED028B48BF7F33DB15642203F5FF
:1041B000FA63B3FBF2F307EE903A81B0054630683C
:1041C000B8EEE78AFFF734FE0146306800F5805309
:1041D0005E685A680432B2F5805F0BD91A68032A08
:1041E00006D801B0BDEC028BBDE8F04FFFF724BE4E
:1041F000042200265A60064486ED008A5E685A68EA
:104200000432B2F5805F04D91A68032AE9D904227E
:1042100000265A6007FB0BF2D317064402D5FF3283
:1042200043F10003120A42EA03624FF400401B12FA
:10423000E0FB0A23A2FB092009FB0309B9F1000FE7
:1042400003DA1F4BD21849F100097C43520DE317E2
:1042500042EAC9224FEA695902D57F3443F100038B
:10426000E40944EA43644FEA084814EB08044FEABF
:10427000E31343F10003121B69EB0309B9F1000FCB
:1042800004DA47F6FF73D21849F10009D20B42EA6B
:1042900049420A235A4307EE902A0A480B46D5E9B9
:1042A0001212F8EEE77A0068C6ED007A01B0BDECB4
:1042B000028BBDE8F04FFFF7D7BD00BFF809002023
:1042C000FFFF1F00FC090020FFF754BF00000000A3
:1042D0002DE9F04F2DED068B55EC104B83B010EE11
:1042E000100A00220023294659EC118BFCF796FE98
:1042F000002840F0CF806E4B002220462946FCF774
:10430000ABFE002840F0C68000220023404649460C
:10431000FCF7A2FE002840F0BD80664B002240461C
:104320004946FCF77BFE002840F0B4805CA3D3E94B
:10433000002329462046FCF729FD82468B464BEC9C
:1043400010AB0EF0C9F851EC100BFCF7A5FE20EAFB
:10435000E0750A2DA8BF0A256B1C0A2D009300F0FA
:104360009980464609F1004747EC106B0EF0B4F80F
:1043700051EC100BFCF790FE20EAE0743C2CA8BF37
:104380003C24631C3C2C019300F084802846FCF7FD
:1043900069FB02460B4650465946FCF715FA824621
:1043A00020468B46FCF75EFB02460B4640463946EC
:1043B000FCF70AFA524641EC180B5B463C493E4E6C
:1043C0000020FCF701FA0B2741EC190B53EC182BDA
:1043D0007C4337490020FCF7F7F9631906EB8303A8
:1043E000804618688946FCF74FFB53EC192BFCF705
:1043F000A3FB42464B46FCF79FFB009B1C4406EB8D
:10440000840441EC1A0B2068FCF73EFB52465B46E5
:10441000FCF792FB42464B46FCF78EFB02460B46EE
:1044200051EC1A0BFCF7D2F9019C7C43254406EBB6
:104430008505804628688946FCF726FB53EC192B36
:10444000FCF77AFB53EC182BFCF776FB02460B4685
:1044500040464946FCF7BAF9009B1C4406EB84062B
:10446000804630688946FCF70FFB52465B46FCF7F6
:1044700063FB53EC182BFCF75FFB02460B464046F0
:104480004946FCF7A3F941EC100B03B0BDEC068BD9
:10449000BDE8F08F9FED040BF7E700BFAFF300809E
:1044A0009A9999999999B93F00000000000000007D
:1044B0000000F03F00004EC0185601080000000048
:1044C0002DE9F04F2DED0A8B91ED038AB2EE04AA8F
:1044D000C8EE0A7A85B0CDE90001009B009AC0EDD4
:1044E000027A086818604B689362FCF7CDFA0FF205
:1044F0005443D3E90023FCF769F90FF25043D3E9A1
:10450000002304460D46FCF717FBF7A3D3E900236D
:1045100006460F46FCF710FB0FF23843D3E90023A1
:10452000FCF754F90FF23443D3E90023FCF704FB02
:10453000EFA3D3E9002341EC1B0B30463946FCF7CF
:10454000FBFAF1A3D3E90023FCF73EF90FF2144381
:10455000D3E90023FCF7F0FA0FF21043D3E900236C
:1045600082468B4620462946FCF7E6FAEE4B044687
:104570000D46002251EC1B0BFCF7DEFA22462B46BF
:1045800080468946FCF7D8FA524606460F465B46F7
:1045900050465946FCF7D0FA02460B46304639469B
:1045A000FCF712F953EC1B2B06460F4640464946D2
:1045B000FCF7C2FA02460B4630463946FCF7E6FBEA
:1045C000DA4B41EC1C0B002251EC1B0BFCF7B4FA4C
:1045D00053EC1B2BFCF7B0FA019BD3ED047A67EE8A
:1045E000C87A8046894617EE900AFCF74DFA424693
:1045F0004B46FCF7A1FACE4B06460F46002251EC83
:104600001B0BFCF799FA52465B46FCF795FA2246DB
:104610002B46FCF791FA02460B4630463946FCF72A
:10462000D3F8524604460D465B4650465946FCF7C1
:10463000CDF852465B46FCF77FFA52465B46FCF7E4
:104640007BFA02460B4620462946FCF7BFF853EC9E
:104650001B2B04460D4640464946FCF76DFA0246C0
:104660000B4620462946FCF791FBB24B00228046C0
:104670008946FCF761FAAC4B06460F46002251EC26
:104680001C0BFCF783FB9FED961B41EC100B41ECE0
:10469000180B0EF06DF855EC104B32463B46304689
:1046A0003946FCF749FA22462B46FCF78FF80246BA
:1046B0000B4643EC192B00220023464609F1004724
:1046C000FCF7CAFC002800F0CC819A4B002240463F
:1046D0003946FCF731FAB0EE490AF0EE690A0446B1
:1046E0000D460EF0BDF8204653EC102B2946FCF782
:1046F0006DF841EC100B0DF0E3FD8DED020BB0EE0B
:10470000490AF0EE690A0EF0ABF8204653EC102B84
:104710002946FCF759F841EC100B0DF0D1FDDDE90D
:10472000020153EC102BFCF751F802460B460446ED
:104730000D46FCF701FA02460B4640464946FCF797
:1047400025FB2246804689462B4651EC1C0BFCF784
:104750001DFB02460B4640464946FCF737F8224609
:10476000804689462B4630463946FCF70FFB724B94
:104770000022FCF7E1F9424606460F464B4640460A
:104780004946FCF7D9F902460B4630463946FCF754
:104790001BF841EC100B0EF063F8634B00225046FF
:1047A0005946FCF7F3FA53EC1B2BFCF7EFFA0246E1
:1047B0000B4620462946FCF707F8604B0022FCF721
:1047C000BBF949A3D3E9002304460D46FCF7B4F92D
:1047D00047A3D3E90023FBF7F9FF47A3D3E900235D
:1047E000FCF7AAF946A3D3E9002306460F46204664
:1047F0002946FCF7A1F944A3D3E90023FBF7E6FF20
:1048000002460B4630463946FBF7DEFF22462B4672
:10481000FCF792F922462B46FCF78EF936A3D3E932
:10482000002306460F4620462946FCF785F9024636
:104830000B4630463946FBF7C9FFFCF775FC019B78
:10484000D3ED045A009BB7EE006A36EE656A07EEB8
:10485000100AC6EE256AC7EE0A7A26EE877AC3EDFD
:10486000047AC7EE0A6A77EEA67AC3ED056AC3ED4D
:10487000037A019B1868FCF707F925A3D3E9002305
:1048800006460F46FCF758F923A3D3E90023044654
:104890000D4630463946FBF799FF02460B46204647
:1048A0002946FCF773FA41EC100B0DF0CDFE1CA36A
:1048B000D3E9002351EC100BFCF73EF9FCF734FC74
:1048C000019B07EE100AD3ED017A67EE277A9FED80
:1048D0001C7AC7EE877A17EE900AFCF7D5F849E004
:1048E00000000000000008406CC46722BECEC1BEBC
:1048F000EE1868887489643F73EF8E019A5EC53F35
:10490000080112D37138A1BEF5AE6ADEAB35483F5F
:10491000EC51B81E85AB31400000000000706E40C5
:10492000A69BC420B07218400000084000003B4025
:10493000000022400000E03F0000104000408F4097
:104940000000C84266666666661271400556853B81
:1049500054A9423F080112D37138A13E0000000063
:1049600065CDCD410000000080842E4101362042FB
:104970005C39E23F8AA3D3E90023FCF707FA41EC54
:10498000100B41EC180B0DF0AFFE55EC104BB0EED8
:10499000480AF0EE680A0DF0A7FE83A3D3E90023CE
:1049A0002046294657EC106BFCF7C6F83246044601
:1049B0000D463B467EA1D1E90001FBF705FF02460B
:1049C0000B4620462946FCF7E1F9FCF7ADFB009BBE
:1049D000DFED6F7A93ED029A69EE277A044617EEBF
:1049E000900AFCF751F860A3D3E90023FCF7CEF955
:1049F000009B064618680F46FCF746F85CA3D3E90F
:104A00000023FBF7E3FE02460B4630463946FCF72F
:104A1000BDF9FCF789FB009B18622046FCF734F8CF
:104A200041EC180B19EE100AFCF72EF8B0EE481AFC
:104A3000F0EE681A41EC100BFFF74AFC51EC100B3A
:104A4000FCF772FB009B5C60D861FCF71DF8024626
:104A500050480B4605B0BDEC0A8BBDE8F04F01F0A5
:104A6000F9BF9FED451BB0EE480AF0EE680A0DF065
:104A70007FFE53EC102B10EE100A03F1004141ECC5
:104A8000100B0DF0EDFE404653EC102BB0EE408ABB
:104A9000F0EE608A3946FCF779F93F4B0022FCF7CB
:104AA0004BF841EC100B0DF09BFD3C4B002251EC00
:104AB000100BFCF76BF9B0EE480AF0EE680A80467E
:104AC00089460DF0FDFB53EC102B10EE100A194631
:104AD000FBF77CFE49EC108B06460F460DF0B4FC4C
:104AE000324651EC100B3B46FCF726F824A3D3E9E1
:104AF000002304460D4640464946FBF767FE41EC5D
:104B0000100B0DF0A1FC324651EC100B3B46FCF7AC
:104B100013F81DA3D3E90023CDE90201404649461D
:104B2000FBF754FE41EC100B0DF08EFC32463B4679
:104B300051EC100BFCF700F8DDE9022306460F46A6
:104B400020462946FCF788FA08B1DDE902453246DD
:104B50003B4620462946FCF77FFA00283FF41DAE6D
:104B600034463D4619E600BFB8A9262D01A12040D4
:104B7000666666666612714000000000000008402C
:104B8000D0F01F3852C10040D0F01F3852C1104041
:104B900000A30E480A5601080000E03F000008404C
:104BA000A69BC420B07218400000000000706E4048
:104BB000EC51B81E85AB31400B4A002303601368EB
:104BC00013B11A461B68FBE71060084A1368591CAA
:104BD0001160074A42F823006FF001024FF0FF33E3
:104BE000C0E90223704700BF140A0020480A0020D1
:104BF000180A0020124B37B5D0E902120446D3E957
:104C000000038842934118D30E4B21691D680E4B57
:104C10006269186801910092FFF70AF9DDE9002145
:104C200003462846FFF720F96FF001024FF0FF33EB
:104C3000C4E90223012003B030BD0020FBE700BF20
:104C4000400A0020FC090020F809002030B5054D7D
:104C5000D5E90045611845F10005C0E90215C0E934
:104C6000042330BD400A00206FF001024FF0FF33F3
:104C7000C0E9022370470000084AD2E9003101333D
:104C800041F1000110B5C2E90031054B1C6824B1A7
:104C90002046FFF7AFFF2468F9E710BD400A002067
:104CA000140A002001F03CBB01F042BB10467047E3
:104CB00070477047704710B50446FFF7F5FF204670
:104CC00010BD000000000000F0B52DED028B89B092
:104CD0000F46164604461822002102A8B0EE408A6C
:104CE0001D4601F059FE072E01973ED0092E40D0F7
:104CF00018EE100AFBF7C8FE394B002206460F4695
:104D0000FBF762FD34A3D3E9002321F00041FCF757
:104D100085F9002830D04FF480530393452D51D0AE
:104D20004F2D53D00C236068059301A9FDF7D8F8E7
:104D300063689A6842F400629A605A6822F490426A
:104D40005A609A6822F02A029A601A6842F00102B8
:104D50001A6053E8002F42F0200243E800210029A6
:104D6000F7D109B0BDEC028BF0BD4FF08053029338
:104D7000BEE74FF48053FAE71A4B0022394630461B
:104D8000FBF722FD21F0004713A3D3E900233946A6
:104D9000FCF744F910B14FF44053BEE7B0EE000AFF
:104DA00038EE408AF0EEC87A17EE900AFBF76CFEF8
:104DB00009A3D3E90023FCF731F90028AED04FF462
:104DC0000053AAE74FF480630493ABE74FF4C0634A
:104DD000FAE700BFAFF300809A9999999999B93F82
:104DE0000000E03F0000F83FC0E90012704710B536
:104DF0000A448A4207D0436811F8014B1C85DC69DC
:104E00006406F6D4FBE710BD4368DA69920610B574
:104E1000044610D504221A62998C0368C9B21B6833
:104E20009847626852E8003F43F0100342E80031BF
:104E30000029F7D102E0DA69D10600D410BD1A6862
:104E4000D206FBD510221A620368BDE810405B68E9
:104E50001847000010B5104C046014685268C26016
:104E600084601A685B6843610C4B0261994241603F
:104E700002D10B4B186010BD0A4B994201D10A4B6D
:104E8000F8E70A4B994201D1094BF3E7094B9942E4
:104E9000F1D1094BEEE700BF9C60010800380140EA
:104EA000500A002000440040540A002000480040FE
:104EB000580A0020008000404C0A0020014B18686E
:104EC000FFF7A2BF4C0A0020014B1868FFF79CBFF8
:104ED000500A0020014B1868FFF796BF540A0020C3
:104EE00038B50D4B0360044680690C4D30B12B681A
:104EF000984204BF03682B60FFF7D6FE0023A3612E
:104F00002B6804F12002934204BF1B682B602046EB
:104F1000FFF7D0FE204638BDD8600108140A0020F3
:104F200010B50446FFF7DCFF2046FFF7BDFE204624
:104F300010BD38B500F13801054600F59E7001F04E
:104F400001F9044658B1FBF77BFB2146024628468F
:104F5000FFF74DFF2046BDE8384001F0E9B938BD04
:104F600038B500230A4905461A4600F59E7000F040
:104F700073FB044658B1FBF763FB21460246284603
:104F8000FFF735FF2046BDE8384001F0D1B938BD04
:104F90009361010838B50446FFF75CFF2046174BC4
:104FA00040F8203BFFF708FE4FF48072002104F127
:104FB000380001F0F1FC002184F83811142204F5C6
:104FC0009E7001F0E9FC0023C4F85031C4F854315C
:104FD000C4F85831C4F85C31C4F86031C4F86431A5
:104FE000C4F86831C4F86C311820FFF75BFE054641
:104FF000FFF7E2FDA561204638BD00BFD86001087B
:1050000010B54FF4807204460021383001F0C4FC22
:10501000002384F8383110BDF8B590F83821531CBE
:105020000244DBB280F8383182F83810224AD16964
:10503000C90604463ED51268D2063BD500F13805B4
:1050400019461E482A4601F02DF894F838312344B9
:10505000002283F838207B21284602F023F870B123
:105060007D21284602F01EF848B12046FFF761FF77
:105070002046FFF7C5FFBDE8F84001F003B82A4617
:105080000F4904F59E7000F0CBFF05460028EFD0D5
:105090000C4F00262846FBF7D3FAB04206D9AB5D89
:1050A0003B85FB695B06FCD50136F3E7284601F03A
:1050B0003FF9DDE7F8BD00BF00800040B0600108A7
:1050C000CB60010800380140F8B5044600F138050E
:1050D00090F838111D482A4600F0E4FF94F8383162
:1050E000E2180021042B82F838102ED97B212846A3
:1050F00001F0D8FF70B17D21284601F0D3FF48B1FF
:105100002046FFF716FF2046FFF77AFFBDE8F8407C
:1051100000F0B8BF2A460E4904F59E7000F080FFEB
:1051200005460028EFD00B4F00262846FBF788FAEB
:10513000B04206D9AB5D3B85FB695B06FCD5013609
:10514000F3E7284601F0F4F8DDE7F8BDB0600108A8
:10515000CB6001080038014010B5034B03600446E2
:10516000FFF7A8FD204610BD4461010810B50446B4
:10517000FFF7F2FF2046FFF797FD204610BD10B560
:105180004FF4007204460021183001F005FC0023A2
:10519000A4F8183210BD10B50446FFF7F0FF002345
:1051A000C4F8543210BD38B590F854320446DBB917
:1051B00040F20113A0F8543200F1180100F5077015
:1051C00000F0C0FF054648B1FBF73AFA294602460F
:1051D0002046FFF70CFE284601F0AAF82046FFF70C
:1051E000CEFF002384F8543238BD0000F8B590F8A3
:1051F00054520446002D51D1B0F81822B2F5FF7F69
:1052000003D9BDE8F840FFF7BABF531C02449BB274
:105210000A29A0F81832117632D1042B30D9034470
:1052200000F118061D767B21304601F03BFF88B364
:105230007D21304601F036FF60B31949304602F057
:105240008FF9D0B1314604F5077000F079FE0646BB
:10525000B0B1144F3046FBF7F3F9A84206D9735D9D
:105260003B85FB695B06FCD50135F3E7304601F071
:105270005FF82046FFF783FF02E02046FFF793FF29
:10528000B4F81832B3F5FF7F08D9074801F044FCA1
:105290002046B6E7054801F03FFCEAE7F8BD00BF4D
:1052A000EA5501080080004015610108EC60010822
:1052B00038B504460025FFF7CDFD114B23601422BD
:1052C0002946A4F8185204F5077001F065FB002385
:1052D0002046C4F83032C4F83432C4F83832C4F846
:1052E0003C32C4F84032C4F84432C4F84832C4F8FE
:1052F0004C32C4F85452FFF742FF204638BD00BF7D
:10530000446101084FF09043DA6890FAA0F3B3FAD1
:1053100083F303215B0001FA03F322EA030390FA0B
:10532000A0F04FF09042D360704710B5026891FA38
:10533000A1F3B3FA83F303245B0004FA03F322EA34
:10534000030291FAA1F1B1FA81F1490004FA01F1E5
:105350001143016010BD000008B52C4B1A68D1073D
:1053600002D5DA695206FCD51A6822F001021A60E9
:10537000264A52E8003F23F0400342E8003100296A
:10538000F7D152E8003F23F4807342E8003100294E
:10539000F7D11F4A52E8003F23F0010342E80031F1
:1053A0000029F7D1194B40221A6208221A620422FE
:1053B0001A6202221A6201221A62164B2022C3F8D4
:1053C0008420BFF34F8FBFF36F8F134B1A6C42F4DF
:1053D00080421A641A6C22F480421A641A6E22F413
:1053E00080421A664FF090404FF40071FFF79DFF26
:1053F0004FF48061FFF799FF4FF40070FFF782FFD1
:10540000BDE808404FF48060FFF77CBF00380140E2
:105410000838014000E100E00010024008B51A4BD6
:105420001A481A6822F001021A60DA6942F0200272
:10543000DA61DA6942F48072DA61DA6942F40072A0
:10544000DA61DA6942F48062DA6103F5DE33402121
:105450009A6B42F400129A639A6B22F400129A63D8
:105460009A6D22F400129A65DA6A42F00202DA6258
:10547000DA6A22F00202DA62FFF757FFBDE808405D
:105480008021FFF752BF00BF0054004000040048D5
:1054900008B5344B1A68D10702D5DA695206FCD533
:1054A0001A6822F001021A6040221A6208221A6267
:1054B00004221A6202221A6201221A62294B53E85C
:1054C000002F22F0400243E800210029F7D153E8E1
:1054D000002F22F0200243E800210029F7D153E8F1
:1054E000002F22F0800243E800210029F7D153E881
:1054F000002F22F4807243E800210029F7D11A4AD4
:1055000052E8003F23F0010342E800310029F7D1BF
:10551000164B4022C3F88820BFF34F8FBFF36F8F25
:10552000134BDA6D22F00102DA65DA6B42F0010208
:10553000DA63DA6B22F00102DA63DA6D22F001023B
:10554000DA654FF090400421FFF7EFFE0821FFF7E6
:10555000ECFE0420FFF7D6FEBDE808400820FFF768
:10556000D1BE00BF008000400880004000E100E0A4
:1055700000100240124BDA6C10B522F00102DA641E
:10558000DA6C86B022F00202DA640021102202A84E
:1055900001F002FA032448F2901369464FF090405C
:1055A000CDE90034FCF700FBE323CDE90034694684
:1055B000002304480493FCF7F7FA06B010BD00BFBF
:1055C000001002400004004810B50446FFF7C4FE76
:1055D0002046FFF75DFF2046FFF720FF2046BDE88D
:1055E0001040FFF7C7BF000038B50546BFF34F8F27
:1055F000BFF36F8F154C3220FCF71AFAA36843F003
:105600000103A360E36843F00103E3601F23A36188
:105610004FF48073A3610E4B02229A616420FCF761
:1056200007FA2846FFF7D0FF23680A4A23F007034A
:1056300043F003032360136943F004031361BFF3D2
:105640004F8FBFF36F8F30BF38BD00BF0070004079
:105650000004004800ED00E02DE9F04FA1B0054640
:105660000C4690461E46FDF703FE07464CB9A14A7C
:10567000A149FDF7DBFD384621B0BDE8F04FFDF74D
:1056800057BD22469C49FDF7D1FDFDF71BFE806802
:10569000FBF7D8F941EC100B98493846FDF798FD17
:1056A0002046302101F0FEFC0446002800F01B815A
:1056B0000024CDE91044ADF84840FDF7D9FD064679
:1056C000A869FBF7E1F90B4602468D4910A801F0E5
:1056D00035FC10AA8B493046FDF7A8FD6869ADF886
:1056E0004840CDE91044FBF7CFF90B460246864906
:1056F00010A801F023FC10AA84493046FDF796FD5E
:10570000E869ADF84840CDE91044FBF7BDF90B4618
:1057100002467B4910A801F011FC10AA7C493046D2
:10572000FDF784FD286AADF84840CDE91044FBF749
:10573000ABF90B460246724910A801F0FFFB10AA14
:1057400074493046FDF772FD686AADF84840CDE90E
:105750001044FBF799F90B460246694910A801F07D
:10576000EDFB10AA6C493046FDF760FDA86AADF864
:105770004840CDE91044FBF787F90B4602466049E3
:1057800010A801F0DBFB10AA64493046FDF74EFD7E
:10579000E86AADF84840CDE91044FBF775F90B46CF
:1057A0000246574910A801F0C9FB10AA5C493046CF
:1057B000FDF73CFD286BADF84840CDE91044FBF700
:1057C00063F90B4602464E4910A801F0B7FB10AA38
:1057D00054493046FDF72AFDFDF774FD4068FBF79C
:1057E00031F941EC100B50493046FDF7F1FCFDF763
:1057F000A7FD4E4AD2F80490D2F804A0D2F8048053
:1058000053680C9353680B9353680A931368099376
:105810001368089313680793136806932146136867
:10582000D2F800B005932E2214A8139401F0B4F816
:10583000059906980C9BC1F302110BF00F0B01EBBD
:1058400081010BEB410103910799C1F30231C0F3D0
:10585000032001EB810100EB4101029109990898B5
:10586000C1F30151C0F3034001EB810100EB4101A1
:1058700001910B990A98C9F30359C1F3011100F082
:105880000F00C8F3003809EB8909CAF3034201EBA2
:10589000810100EB4101C3F3032308EB880802EB0D
:1058A000490203EB48030091D2B2214913A801F049
:1058B00045FB204913AA3046FDF7B8FC1E492A468D
:1058C0003046FDF7B3FC1D4932463846FDF746FC2D
:1058D0003846FDF72DFC04463846FDF7F9F9204619
:1058E00021B0BDE8F08FB8F1000F2BD1014A144967
:1058F0003846BEE67F620108586101085F61010811
:10590000696101086E6101087A6101087F6101081F
:105910008861010891610108956101089F61010892
:10592000A3610108AB610108BB61010800280040C8
:10593000C9610108E9610108F2610108FC6101081F
:1059400000620108BD49404601F00AFE002800F04F
:10595000CE81CDE91044ADF84840FDF77DFC04460A
:10596000002E00F0C181B668DFF800A3DFF800B3B5
:10597000002E00F0B9813069002800F0B381B049F1
:1059800001F0EEFDC8B1FDF773FC00238046A86965
:10599000ADF84830CDE91033FBF776F802460B46F8
:1059A00010A8A84901F0CAFAA54910AA4046FDF777
:1059B0003DFC41462046FDF7CFFB3069514601F0E2
:1059C000CFFDC8B1FDF754FC002380466869ADF8EF
:1059D0004830CDE91033FBF757F802460B4610A8C4
:1059E000984901F0ABFA514610AA4046FDF71EFC5B
:1059F00041462046FDF7B0FB3069594601F0B0FD45
:105A0000C8B1FDF735FC00238046E869ADF84830A1
:105A1000CDE91033FBF738F802460B4610A8894948
:105A200001F08CFA594610AA4046FDF7FFFB4146AB
:105A30002046FDF791FB8449306901F091FDC8B122
:105A4000FDF716FC00238046286AADF84830CDE902
:105A50001033FBF719F802460B4610A8794901F0FC
:105A60006DFA794910AA4046FDF7E0FB4146204611
:105A7000FDF772FB7549306901F072FDC8B1FDF7A1
:105A8000F7FB00238046686AADF84830CDE9103353
:105A9000FAF7FAFF02460B4610A86A4901F04EFADF
:105AA0006A4910AA4046FDF7C1FB41462046FDF772
:105AB00053FB6749306901F053FDC8B1FDF7D8FBCE
:105AC00000238046A86AADF84830CDE91033FAF7D4
:105AD000DBFF02460B4610A85A4901F02FFA5C4939
:105AE00010AA4046FDF7A2FB41462046FDF734FBD5
:105AF0005849306901F034FDC8B1FDF7B9FB002306
:105B00008046E86AADF84830CDE91033FAF7BCFFBB
